{
  "_format": "hh-sol-artifact-1",
  "contractName": "Bridge",
  "sourceName": "contracts/Bridge.sol",
  "abi": [
    {
      "inputs": [
        {
          "internalType": "address",
          "name": "_bridge",
          "type": "address"
        }
      ],
      "stateMutability": "nonpayable",
      "type": "constructor"
    },
    {
      "anonymous": false,
      "inputs": [
        {
          "indexed": false,
          "internalType": "uint8",
          "name": "sourceChain",
          "type": "uint8"
        },
        {
          "indexed": false,
          "internalType": "uint256",
          "name": "amount",
          "type": "uint256"
        },
        {
          "indexed": false,
          "internalType": "address",
          "name": "receiver",
          "type": "address"
        }
      ],
      "name": "Burn",
      "type": "event"
    },
    {
      "anonymous": false,
      "inputs": [
        {
          "indexed": false,
          "internalType": "uint8",
          "name": "targetChain",
          "type": "uint8"
        },
        {
          "indexed": false,
          "internalType": "address",
          "name": "token",
          "type": "address"
        },
        {
          "indexed": false,
          "internalType": "uint256",
          "name": "amount",
          "type": "uint256"
        },
        {
          "indexed": false,
          "internalType": "address",
          "name": "receiver",
          "type": "address"
        }
      ],
      "name": "Lock",
      "type": "event"
    },
    {
      "anonymous": false,
      "inputs": [
        {
          "indexed": false,
          "internalType": "uint8",
          "name": "sourceChain",
          "type": "uint8"
        },
        {
          "indexed": false,
          "internalType": "uint256",
          "name": "amount",
          "type": "uint256"
        },
        {
          "indexed": false,
          "internalType": "address",
          "name": "receiver",
          "type": "address"
        }
      ],
      "name": "Mint",
      "type": "event"
    },
    {
      "anonymous": false,
      "inputs": [
        {
          "indexed": false,
          "internalType": "uint8",
          "name": "sourceChain",
          "type": "uint8"
        },
        {
          "indexed": false,
          "internalType": "address",
          "name": "token",
          "type": "address"
        },
        {
          "indexed": false,
          "internalType": "uint256",
          "name": "amount",
          "type": "uint256"
        },
        {
          "indexed": false,
          "internalType": "address",
          "name": "receiver",
          "type": "address"
        }
      ],
      "name": "Unlock",
      "type": "event"
    },
    {
      "anonymous": false,
      "inputs": [
        {
          "indexed": false,
          "internalType": "uint16",
          "name": "sourceChain",
          "type": "uint16"
        },
        {
          "indexed": false,
          "internalType": "address",
          "name": "token",
          "type": "address"
        },
        {
          "indexed": false,
          "internalType": "address",
          "name": "wrappedToken",
          "type": "address"
        }
      ],
      "name": "WrappedTokenDeployed",
      "type": "event"
    },
    {
      "inputs": [
        {
          "internalType": "uint8",
          "name": "sourceChain",
          "type": "uint8"
        },
        {
          "internalType": "address",
          "name": "wrappedToken",
          "type": "address"
        },
        {
          "internalType": "uint256",
          "name": "amount",
          "type": "uint256"
        },
        {
          "internalType": "address",
          "name": "receiver",
          "type": "address"
        }
      ],
      "name": "burn",
      "outputs": [],
      "stateMutability": "nonpayable",
      "type": "function"
    },
    {
      "inputs": [
        {
          "internalType": "uint8",
          "name": "targetChain",
          "type": "uint8"
        },
        {
          "internalType": "address",
          "name": "token",
          "type": "address"
        },
        {
          "internalType": "uint256",
          "name": "amount",
          "type": "uint256"
        }
      ],
      "name": "lock",
      "outputs": [],
      "stateMutability": "nonpayable",
      "type": "function"
    },
    {
      "inputs": [
        {
          "internalType": "uint8",
          "name": "sourceChain",
          "type": "uint8"
        },
        {
          "internalType": "address",
          "name": "token",
          "type": "address"
        },
        {
          "internalType": "uint256",
          "name": "amount",
          "type": "uint256"
        },
        {
          "internalType": "address",
          "name": "receiver",
          "type": "address"
        },
        {
          "internalType": "string",
          "name": "TokenName",
          "type": "string"
        },
        {
          "internalType": "string",
          "name": "TokenSymbol",
          "type": "string"
        }
      ],
      "name": "mint",
      "outputs": [],
      "stateMutability": "nonpayable",
      "type": "function"
    },
    {
      "inputs": [
        {
          "internalType": "uint8",
          "name": "sourceChain",
          "type": "uint8"
        },
        {
          "internalType": "address",
          "name": "token",
          "type": "address"
        },
        {
          "internalType": "uint256",
          "name": "amount",
          "type": "uint256"
        },
        {
          "internalType": "address",
          "name": "receiver",
          "type": "address"
        }
      ],
      "name": "unlock",
      "outputs": [],
      "stateMutability": "nonpayable",
      "type": "function"
    },
    {
      "inputs": [],
      "name": "wrappedTokens",
      "outputs": [
        {
          "components": [
            {
              "internalType": "string",
              "name": "name",
              "type": "string"
            },
            {
              "internalType": "string",
              "name": "symbol",
              "type": "string"
            },
            {
              "internalType": "uint8",
              "name": "decimals",
              "type": "uint8"
            },
            {
              "internalType": "address",
              "name": "wrappedToken",
              "type": "address"
            },
            {
              "internalType": "address",
              "name": "token",
              "type": "address"
            },
            {
              "internalType": "uint8",
              "name": "sourceChain",
              "type": "uint8"
            }
          ],
          "internalType": "struct Wrap.WrappedToken[]",
          "name": "",
          "type": "tuple[]"
        }
      ],
      "stateMutability": "view",
      "type": "function"
    }
  ],
  "bytecode": "0x60806040523480156200001157600080fd5b506040516200595738038062005957833981810160405281019062000037919062000096565b80600360006101000a81548173ffffffffffffffffffffffffffffffffffffffff021916908373ffffffffffffffffffffffffffffffffffffffff1602179055505062000110565b6000815190506200009081620000f6565b92915050565b600060208284031215620000a957600080fd5b6000620000b9848285016200007f565b91505092915050565b6000620000cf82620000d6565b9050919050565b600073ffffffffffffffffffffffffffffffffffffffff82169050919050565b6200010181620000c2565b81146200010d57600080fd5b50565b61583780620001206000396000f3fe60806040523480156200001157600080fd5b50600436106200005e5760003560e01c806304cabca2146200006357806321b05662146200008357806330d5d80814620000a3578063cdeb0f4714620000c3578063d5963bc314620000e5575b600080fd5b6200008160048036038101906200007b91906200139a565b62000105565b005b620000a160048036038101906200009b91906200139a565b620003e5565b005b620000c16004803603810190620000bb919062001344565b62000575565b005b620000cd62000695565b604051620000dc919062001900565b60405180910390f35b620001036004803603810190620000fd919062001406565b62000910565b005b600082116200014b576040517f08c379a0000000000000000000000000000000000000000000000000000000008152600401620001429062001981565b60405180910390fd5b3373ffffffffffffffffffffffffffffffffffffffff168173ffffffffffffffffffffffffffffffffffffffff1614620001bc576040517f08c379a0000000000000000000000000000000000000000000000000000000008152600401620001b390620019a3565b60405180910390fd5b600073ffffffffffffffffffffffffffffffffffffffff16600160008573ffffffffffffffffffffffffffffffffffffffff1673ffffffffffffffffffffffffffffffffffffffff16815260200190815260200160002060030160009054906101000a900473ffffffffffffffffffffffffffffffffffffffff1673ffffffffffffffffffffffffffffffffffffffff16141562000291576040517f08c379a0000000000000000000000000000000000000000000000000000000008152600401620002889062001a91565b60405180910390fd5b8360ff16600160008573ffffffffffffffffffffffffffffffffffffffff1673ffffffffffffffffffffffffffffffffffffffff16815260200190815260200160002060030160149054906101000a900460ff1660ff16146200032b576040517f08c379a0000000000000000000000000000000000000000000000000000000008152600401620003229062001a2b565b60405180910390fd5b60008390508073ffffffffffffffffffffffffffffffffffffffff166379cc679083856040518363ffffffff1660e01b81526004016200036d929190620018d3565b600060405180830381600087803b1580156200038857600080fd5b505af11580156200039d573d6000803e3d6000fd5b505050507fa8c6f4d459318234f231fc7d041a2a80090a9c093c1dc4ec1a5c4fbaf926c140858433604051620003d69392919062001b5f565b60405180910390a15050505050565b600082116200042b576040517f08c379a0000000000000000000000000000000000000000000000000000000008152600401620004229062001ab3565b60405180910390fd5b3373ffffffffffffffffffffffffffffffffffffffff168173ffffffffffffffffffffffffffffffffffffffff16146200049c576040517f08c379a00000000000000000000000000000000000000000000000000000000081526004016200049390620019a3565b60405180910390fd5b8273ffffffffffffffffffffffffffffffffffffffff1663a9059cbb33846040518363ffffffff1660e01b8152600401620004d9929190620018d3565b602060405180830381600087803b158015620004f457600080fd5b505af115801562000509573d6000803e3d6000fd5b505050506040513d601f19601f820116820180604052508101906200052f9190620012ec565b507f01782e9b640fa1453f38e9f1b866184cf433c45e1fd02212f3b3dcde69b11c388484843360405162000567949392919062001b12565b60405180910390a150505050565b60008111620005bb576040517f08c379a0000000000000000000000000000000000000000000000000000000008152600401620005b2906200195f565b60405180910390fd5b8173ffffffffffffffffffffffffffffffffffffffff166323b872dd3330846040518463ffffffff1660e01b8152600401620005fa9392919062001896565b602060405180830381600087803b1580156200061557600080fd5b505af11580156200062a573d6000803e3d6000fd5b505050506040513d601f19601f82011682018060405250810190620006509190620012ec565b507f74c2ea55be4409b3a893e208dae672b5f4926050e2a33b0c345f04bd83a8d2cd8383833360405162000688949392919062001b12565b60405180910390a1505050565b60606002805480602002602001604051908101604052809291908181526020016000905b828210156200090757838290600052602060002090600402016040518060c0016040529081600082018054620006ef9062001d11565b80601f01602080910402602001604051908101604052809291908181526020018280546200071d9062001d11565b80156200076e5780601f1062000742576101008083540402835291602001916200076e565b820191906000526020600020905b8154815290600101906020018083116200075057829003601f168201915b50505050508152602001600182018054620007899062001d11565b80601f0160208091040260200160405190810160405280929190818152602001828054620007b79062001d11565b8015620008085780601f10620007dc5761010080835404028352916020019162000808565b820191906000526020600020905b815481529060010190602001808311620007ea57829003601f168201915b505050505081526020016002820160009054906101000a900460ff1660ff1660ff1681526020016002820160019054906101000a900473ffffffffffffffffffffffffffffffffffffffff1673ffffffffffffffffffffffffffffffffffffffff1673ffffffffffffffffffffffffffffffffffffffff1681526020016003820160009054906101000a900473ffffffffffffffffffffffffffffffffffffffff1673ffffffffffffffffffffffffffffffffffffffff1673ffffffffffffffffffffffffffffffffffffffff1681526020016003820160149054906101000a900460ff1660ff1660ff168152505081526020019060010190620006b9565b50505050905090565b6000841162000956576040517f08c379a00000000000000000000000000000000000000000000000000000000081526004016200094d90620019e7565b60405180910390fd5b3373ffffffffffffffffffffffffffffffffffffffff168373ffffffffffffffffffffffffffffffffffffffff1614620009c7576040517f08c379a0000000000000000000000000000000000000000000000000000000008152600401620009be90620019a3565b60405180910390fd5b60008060008773ffffffffffffffffffffffffffffffffffffffff1673ffffffffffffffffffffffffffffffffffffffff16815260200190815260200160002060009054906101000a900473ffffffffffffffffffffffffffffffffffffffff169050600073ffffffffffffffffffffffffffffffffffffffff168173ffffffffffffffffffffffffffffffffffffffff16141562000a715762000a6e8787858562000b28565b90505b8073ffffffffffffffffffffffffffffffffffffffff166340c10f1933876040518363ffffffff1660e01b815260040162000aae929190620018d3565b600060405180830381600087803b15801562000ac957600080fd5b505af115801562000ade573d6000803e3d6000fd5b505050507faf8d8e9aa16838acfee20780abd209aa4f3b68b972e489f8f8b60cd6495a1b0987863360405162000b179392919062001b5f565b60405180910390a150505050505050565b60008073ffffffffffffffffffffffffffffffffffffffff166000808673ffffffffffffffffffffffffffffffffffffffff1673ffffffffffffffffffffffffffffffffffffffff16815260200190815260200160002060009054906101000a900473ffffffffffffffffffffffffffffffffffffffff1673ffffffffffffffffffffffffffffffffffffffff161462000bf9576040517f08c379a000000000000000000000000000000000000000000000000000000000815260040162000bf090620019c5565b60405180910390fd5b60008351141562000c41576040517f08c379a000000000000000000000000000000000000000000000000000000000815260040162000c389062001a09565b60405180910390fd5b60008251141562000c89576040517f08c379a000000000000000000000000000000000000000000000000000000000815260040162000c809062001a6f565b60405180910390fd5b60008560ff161162000cd2576040517f08c379a000000000000000000000000000000000000000000000000000000000815260040162000cc99062001a4d565b60405180910390fd5b6000838360405162000ce49062001149565b62000cf192919062001924565b604051809103906000f08015801562000d0e573d6000803e3d6000fd5b509050806000808773ffffffffffffffffffffffffffffffffffffffff1673ffffffffffffffffffffffffffffffffffffffff16815260200190815260200160002060006101000a81548173ffffffffffffffffffffffffffffffffffffffff021916908373ffffffffffffffffffffffffffffffffffffffff16021790555060006040518060c001604052808681526020018581526020018373ffffffffffffffffffffffffffffffffffffffff1663313ce5676040518163ffffffff1660e01b815260040160206040518083038186803b15801562000dee57600080fd5b505afa15801562000e03573d6000803e3d6000fd5b505050506040513d601f19601f8201168201806040525081019062000e29919062001318565b60ff1681526020018373ffffffffffffffffffffffffffffffffffffffff1681526020018773ffffffffffffffffffffffffffffffffffffffff1681526020018860ff1681525090506002819080600181540180825580915050600190039060005260206000209060040201600090919091909150600082015181600001908051906020019062000ebc92919062001157565b50602082015181600101908051906020019062000edb92919062001157565b5060408201518160020160006101000a81548160ff021916908360ff16021790555060608201518160020160016101000a81548173ffffffffffffffffffffffffffffffffffffffff021916908373ffffffffffffffffffffffffffffffffffffffff16021790555060808201518160030160006101000a81548173ffffffffffffffffffffffffffffffffffffffff021916908373ffffffffffffffffffffffffffffffffffffffff16021790555060a08201518160030160146101000a81548160ff021916908360ff160217905550505080600160008473ffffffffffffffffffffffffffffffffffffffff1673ffffffffffffffffffffffffffffffffffffffff16815260200190815260200160002060008201518160000190805190602001906200100c92919062001157565b5060208201518160010190805190602001906200102b92919062001157565b5060408201518160020160006101000a81548160ff021916908360ff16021790555060608201518160020160016101000a81548173ffffffffffffffffffffffffffffffffffffffff021916908373ffffffffffffffffffffffffffffffffffffffff16021790555060808201518160030160006101000a81548173ffffffffffffffffffffffffffffffffffffffff021916908373ffffffffffffffffffffffffffffffffffffffff16021790555060a08201518160030160146101000a81548160ff021916908360ff1602179055509050507fb882092a0e4a7b6c2d0f02a2cdc48c3f8732b4db08e00c15aefa5523ca741e6d878784604051620011349392919062001ad5565b60405180910390a18192505050949350505050565b6137ea806200201883390190565b828054620011659062001d11565b90600052602060002090601f016020900481019282620011895760008555620011d5565b82601f10620011a457805160ff1916838001178555620011d5565b82800160010185558215620011d5579182015b82811115620011d4578251825591602001919060010190620011b7565b5b509050620011e49190620011e8565b5090565b5b8082111562001203576000816000905550600101620011e9565b5090565b60006200121e620012188462001bc5565b62001b9c565b9050828152602081018484840111156200123757600080fd5b6200124484828562001ccc565b509392505050565b6000813590506200125d8162001faf565b92915050565b600081519050620012748162001fc9565b92915050565b600082601f8301126200128c57600080fd5b81356200129e84826020860162001207565b91505092915050565b600081359050620012b88162001fe3565b92915050565b600081359050620012cf8162001ffd565b92915050565b600081519050620012e68162001ffd565b92915050565b600060208284031215620012ff57600080fd5b60006200130f8482850162001263565b91505092915050565b6000602082840312156200132b57600080fd5b60006200133b84828501620012d5565b91505092915050565b6000806000606084860312156200135a57600080fd5b60006200136a86828701620012be565b93505060206200137d868287016200124c565b92505060406200139086828701620012a7565b9150509250925092565b60008060008060808587031215620013b157600080fd5b6000620013c187828801620012be565b9450506020620013d4878288016200124c565b9350506040620013e787828801620012a7565b9250506060620013fa878288016200124c565b91505092959194509250565b60008060008060008060c087890312156200142057600080fd5b60006200143089828a01620012be565b96505060206200144389828a016200124c565b95505060406200145689828a01620012a7565b94505060606200146989828a016200124c565b935050608087013567ffffffffffffffff8111156200148757600080fd5b6200149589828a016200127a565b92505060a087013567ffffffffffffffff811115620014b357600080fd5b620014c189828a016200127a565b9150509295509295509295565b6000620014dc8383620017b6565b905092915050565b620014ef8162001c61565b82525050565b620015008162001c61565b82525050565b6000620015138262001c0b565b6200151f818562001c2e565b935083602082028501620015338562001bfb565b8060005b85811015620015755784840389528151620015538582620014ce565b9450620015608362001c21565b925060208a0199505060018101905062001537565b50829750879550505050505092915050565b6000620015948262001c16565b620015a0818562001c3f565b9350620015b281856020860162001cdb565b620015bd8162001ddb565b840191505092915050565b6000620015d58262001c16565b620015e1818562001c50565b9350620015f381856020860162001cdb565b620015fe8162001ddb565b840191505092915050565b60006200161860148362001c50565b9150620016258262001dec565b602082019050919050565b60006200163f60148362001c50565b91506200164c8262001e15565b602082019050919050565b600062001666601d8362001c50565b9150620016738262001e3e565b602082019050919050565b60006200168d60158362001c50565b91506200169a8262001e67565b602082019050919050565b6000620016b460148362001c50565b9150620016c18262001e90565b602082019050919050565b6000620016db600f8362001c50565b9150620016e88262001eb9565b602082019050919050565b60006200170260108362001c50565b91506200170f8262001ee2565b602082019050919050565b600062001729600a8362001c50565b9150620017368262001f0b565b602082019050919050565b60006200175060118362001c50565b91506200175d8262001f34565b602082019050919050565b60006200177760138362001c50565b9150620017848262001f5d565b602082019050919050565b60006200179e60168362001c50565b9150620017ab8262001f86565b602082019050919050565b600060c0830160008301518482036000860152620017d5828262001587565b91505060208301518482036020860152620017f1828262001587565b915050604083015162001808604086018262001874565b5060608301516200181d6060860182620014e4565b506080830151620018326080860182620014e4565b5060a08301516200184760a086018262001874565b508091505092915050565b6200185d8162001ca1565b82525050565b6200186e8162001cb8565b82525050565b6200187f8162001cab565b82525050565b620018908162001cab565b82525050565b6000606082019050620018ad6000830186620014f5565b620018bc6020830185620014f5565b620018cb604083018462001852565b949350505050565b6000604082019050620018ea6000830185620014f5565b620018f9602083018462001852565b9392505050565b600060208201905081810360008301526200191c818462001506565b905092915050565b60006040820190508181036000830152620019408185620015c8565b90508181036020830152620019568184620015c8565b90509392505050565b600060208201905081810360008301526200197a8162001609565b9050919050565b600060208201905081810360008301526200199c8162001630565b9050919050565b60006020820190508181036000830152620019be8162001657565b9050919050565b60006020820190508181036000830152620019e0816200167e565b9050919050565b6000602082019050818103600083015262001a0281620016a5565b9050919050565b6000602082019050818103600083015262001a2481620016cc565b9050919050565b6000602082019050818103600083015262001a4681620016f3565b9050919050565b6000602082019050818103600083015262001a68816200171a565b9050919050565b6000602082019050818103600083015262001a8a8162001741565b9050919050565b6000602082019050818103600083015262001aac8162001768565b9050919050565b6000602082019050818103600083015262001ace816200178f565b9050919050565b600060608201905062001aec600083018662001863565b62001afb6020830185620014f5565b62001b0a6040830184620014f5565b949350505050565b600060808201905062001b29600083018762001885565b62001b386020830186620014f5565b62001b47604083018562001852565b62001b566060830184620014f5565b95945050505050565b600060608201905062001b76600083018662001885565b62001b85602083018562001852565b62001b946040830184620014f5565b949350505050565b600062001ba862001bbb565b905062001bb6828262001d47565b919050565b6000604051905090565b600067ffffffffffffffff82111562001be35762001be262001dac565b5b62001bee8262001ddb565b9050602081019050919050565b6000819050602082019050919050565b600081519050919050565b600081519050919050565b6000602082019050919050565b600082825260208201905092915050565b600082825260208201905092915050565b600082825260208201905092915050565b600062001c6e8262001c81565b9050919050565b60008115159050919050565b600073ffffffffffffffffffffffffffffffffffffffff82169050919050565b6000819050919050565b600060ff82169050919050565b600062001cc58262001cab565b9050919050565b82818337600083830152505050565b60005b8381101562001cfb57808201518184015260208101905062001cde565b8381111562001d0b576000848401525b50505050565b6000600282049050600182168062001d2a57607f821691505b6020821081141562001d415762001d4062001d7d565b5b50919050565b62001d528262001ddb565b810181811067ffffffffffffffff8211171562001d745762001d7362001dac565b5b80604052505050565b7f4e487b7100000000000000000000000000000000000000000000000000000000600052602260045260246000fd5b7f4e487b7100000000000000000000000000000000000000000000000000000000600052604160045260246000fd5b6000601f19601f8301169050919050565b7f43616e6e6f74204c6f636b203020746f6b656e73000000000000000000000000600082015250565b7f43616e6e6f74204275726e203020746f6b656e73000000000000000000000000600082015250565b7f52656365697665722073686f756c64206265207468652073656e646572000000600082015250565b7f546f6b656e20616c726561647920777261707065640000000000000000000000600082015250565b7f43616e6e6f74204d696e74203020746f6b656e73000000000000000000000000600082015250565b7f507574206c6f6e676572206e616d650000000000000000000000000000000000600082015250565b7f42616420736f7572636520636861696e00000000000000000000000000000000600082015250565b7f43616e2774206265203000000000000000000000000000000000000000000000600082015250565b7f507574206c6f6e6765722073796d626f6c000000000000000000000000000000600082015250565b7f4e6f7420737570706f7274656420746f6b656e00000000000000000000000000600082015250565b7f43616e6e6f7420556e6c6f636b203020746f6b656e7300000000000000000000600082015250565b62001fba8162001c61565b811462001fc657600080fd5b50565b62001fd48162001c75565b811462001fe057600080fd5b50565b62001fee8162001ca1565b811462001ffa57600080fd5b50565b620020088162001cab565b81146200201457600080fd5b5056fe60806040523480156200001157600080fd5b50604051620037ea380380620037ea8339818101604052810190620000379190620004ee565b8181816005908051906020019062000051929190620003cc565b5080600690805190602001906200006a929190620003cc565b5050506000600760006101000a81548160ff021916908315150217905550620000ac6000801b620000a06200013660201b60201c565b6200013e60201b60201c565b620000ed7f9f2df0fed2c77648de5860a4cc508cd0818c85b8b8a1ab4ceeef8d981c8956a6620000e16200013660201b60201c565b6200013e60201b60201c565b6200012e7f65d7a28e3265b37a6474929f336521b332c1681b933f6cb9f3376673440d862a620001226200013660201b60201c565b6200013e60201b60201c565b5050620006d1565b600033905090565b6200015582826200018660201b62000efb1760201c565b6200018181600160008581526020019081526020016000206200019c60201b62000f091790919060201c565b505050565b620001988282620001d460201b60201c565b5050565b6000620001cc836000018373ffffffffffffffffffffffffffffffffffffffff1660001b620002c560201b60201c565b905092915050565b620001e682826200033f60201b60201c565b620002c157600160008084815260200190815260200160002060000160008373ffffffffffffffffffffffffffffffffffffffff1673ffffffffffffffffffffffffffffffffffffffff16815260200190815260200160002060006101000a81548160ff021916908315150217905550620002666200013660201b60201c565b73ffffffffffffffffffffffffffffffffffffffff168173ffffffffffffffffffffffffffffffffffffffff16837f2f8788117e7eff1d82e926ec794901d17c78024a50270940304540a733656f0d60405160405180910390a45b5050565b6000620002d98383620003a960201b60201c565b6200033457826000018290806001815401808255809150506001900390600052602060002001600090919091909150558260000180549050836001016000848152602001908152602001600020819055506001905062000339565b600090505b92915050565b600080600084815260200190815260200160002060000160008373ffffffffffffffffffffffffffffffffffffffff1673ffffffffffffffffffffffffffffffffffffffff16815260200190815260200160002060009054906101000a900460ff16905092915050565b600080836001016000848152602001908152602001600020541415905092915050565b828054620003da90620005f6565b90600052602060002090601f016020900481019282620003fe57600085556200044a565b82601f106200041957805160ff19168380011785556200044a565b828001600101855582156200044a579182015b82811115620004495782518255916020019190600101906200042c565b5b5090506200045991906200045d565b5090565b5b80821115620004785760008160009055506001016200045e565b5090565b6000620004936200048d846200058a565b62000561565b905082815260208101848484011115620004ac57600080fd5b620004b9848285620005c0565b509392505050565b600082601f830112620004d357600080fd5b8151620004e58482602086016200047c565b91505092915050565b600080604083850312156200050257600080fd5b600083015167ffffffffffffffff8111156200051d57600080fd5b6200052b85828601620004c1565b925050602083015167ffffffffffffffff8111156200054957600080fd5b6200055785828601620004c1565b9150509250929050565b60006200056d62000580565b90506200057b82826200062c565b919050565b6000604051905090565b600067ffffffffffffffff821115620005a857620005a762000691565b5b620005b382620006c0565b9050602081019050919050565b60005b83811015620005e0578082015181840152602081019050620005c3565b83811115620005f0576000848401525b50505050565b600060028204905060018216806200060f57607f821691505b6020821081141562000626576200062562000662565b5b50919050565b6200063782620006c0565b810181811067ffffffffffffffff8211171562000659576200065862000691565b5b80604052505050565b7f4e487b7100000000000000000000000000000000000000000000000000000000600052602260045260246000fd5b7f4e487b7100000000000000000000000000000000000000000000000000000000600052604160045260246000fd5b6000601f19601f8301169050919050565b61310980620006e16000396000f3fe608060405234801561001057600080fd5b50600436106101c45760003560e01c806370a08231116100f9578063a457c2d711610097578063d539139311610071578063d53913931461052d578063d547741f1461054b578063dd62ed3e14610567578063e63ab1e914610597576101c4565b8063a457c2d71461049d578063a9059cbb146104cd578063ca15c873146104fd576101c4565b80639010d07c116100d35780639010d07c1461040157806391d148541461043157806395d89b4114610461578063a217fddf1461047f576101c4565b806370a08231146103ab57806379cc6790146103db5780638456cb59146103f7576101c4565b8063313ce567116101665780633f4ba83a116101405780633f4ba83a1461034b57806340c10f191461035557806342966c68146103715780635c975abb1461038d576101c4565b8063313ce567146102e157806336568abe146102ff578063395093511461031b576101c4565b806318160ddd116101a257806318160ddd1461024757806323b872dd14610265578063248a9ca3146102955780632f2ff15d146102c5576101c4565b806301ffc9a7146101c957806306fdde03146101f9578063095ea7b314610217575b600080fd5b6101e360048036038101906101de919061216b565b6105b5565b6040516101f0919061253b565b60405180910390f35b61020161062f565b60405161020e9190612571565b60405180910390f35b610231600480360381019061022c919061208e565b6106c1565b60405161023e919061253b565b60405180910390f35b61024f6106df565b60405161025c9190612833565b60405180910390f35b61027f600480360381019061027a919061203f565b6106e9565b60405161028c919061253b565b60405180910390f35b6102af60048036038101906102aa91906120ca565b6107ea565b6040516102bc9190612556565b60405180910390f35b6102df60048036038101906102da91906120f3565b610809565b005b6102e961083d565b6040516102f6919061284e565b60405180910390f35b610319600480360381019061031491906120f3565b610846565b005b6103356004803603810190610330919061208e565b61087a565b604051610342919061253b565b60405180910390f35b610353610926565b005b61036f600480360381019061036a919061208e565b6109a0565b005b61038b60048036038101906103869190612194565b610a1e565b005b610395610a32565b6040516103a2919061253b565b60405180910390f35b6103c560048036038101906103c09190611fda565b610a49565b6040516103d29190612833565b60405180910390f35b6103f560048036038101906103f0919061208e565b610a92565b005b6103ff610b16565b005b61041b6004803603810190610416919061212f565b610b90565b6040516104289190612520565b60405180910390f35b61044b600480360381019061044691906120f3565b610bbf565b604051610458919061253b565b60405180910390f35b610469610c29565b6040516104769190612571565b60405180910390f35b610487610cbb565b6040516104949190612556565b60405180910390f35b6104b760048036038101906104b2919061208e565b610cc2565b6040516104c4919061253b565b60405180910390f35b6104e760048036038101906104e2919061208e565b610db6565b6040516104f4919061253b565b60405180910390f35b610517600480360381019061051291906120ca565b610dd4565b6040516105249190612833565b60405180910390f35b610535610df8565b6040516105429190612556565b60405180910390f35b610565600480360381019061056091906120f3565b610e1c565b005b610581600480360381019061057c9190612003565b610e50565b60405161058e9190612833565b60405180910390f35b61059f610ed7565b6040516105ac9190612556565b60405180910390f35b60007f5a05180f000000000000000000000000000000000000000000000000000000007bffffffffffffffffffffffffffffffffffffffffffffffffffffffff1916827bffffffffffffffffffffffffffffffffffffffffffffffffffffffff19161480610628575061062782610f39565b5b9050919050565b60606005805461063e906129cd565b80601f016020809104026020016040519081016040528092919081815260200182805461066a906129cd565b80156106b75780601f1061068c576101008083540402835291602001916106b7565b820191906000526020600020905b81548152906001019060200180831161069a57829003601f168201915b5050505050905090565b60006106d56106ce610fb3565b8484610fbb565b6001905092915050565b6000600454905090565b60006106f6848484611186565b6000600360008673ffffffffffffffffffffffffffffffffffffffff1673ffffffffffffffffffffffffffffffffffffffff1681526020019081526020016000206000610741610fb3565b73ffffffffffffffffffffffffffffffffffffffff1673ffffffffffffffffffffffffffffffffffffffff168152602001908152602001600020549050828110156107c1576040517f08c379a00000000000000000000000000000000000000000000000000000000081526004016107b8906126d3565b60405180910390fd5b6107de856107cd610fb3565b85846107d991906128db565b610fbb565b60019150509392505050565b6000806000838152602001908152602001600020600101549050919050565b6108138282611408565b6108388160016000858152602001908152602001600020610f0990919063ffffffff16565b505050565b60006012905090565b610850828261146e565b61087581600160008581526020019081526020016000206114f190919063ffffffff16565b505050565b600061091c610887610fb3565b848460036000610895610fb3565b73ffffffffffffffffffffffffffffffffffffffff1673ffffffffffffffffffffffffffffffffffffffff16815260200190815260200160002060008873ffffffffffffffffffffffffffffffffffffffff1673ffffffffffffffffffffffffffffffffffffffff168152602001908152602001600020546109179190612885565b610fbb565b6001905092915050565b6109577f65d7a28e3265b37a6474929f336521b332c1681b933f6cb9f3376673440d862a610952610fb3565b610bbf565b610996576040517f08c379a000000000000000000000000000000000000000000000000000000000815260040161098d90612633565b60405180910390fd5b61099e611521565b565b6109d17f9f2df0fed2c77648de5860a4cc508cd0818c85b8b8a1ab4ceeef8d981c8956a66109cc610fb3565b610bbf565b610a10576040517f08c379a0000000000000000000000000000000000000000000000000000000008152600401610a07906126f3565b60405180910390fd5b610a1a82826115c3565b5050565b610a2f610a29610fb3565b82611718565b50565b6000600760009054906101000a900460ff16905090565b6000600260008373ffffffffffffffffffffffffffffffffffffffff1673ffffffffffffffffffffffffffffffffffffffff168152602001908152602001600020549050919050565b6000610aa583610aa0610fb3565b610e50565b905081811015610aea576040517f08c379a0000000000000000000000000000000000000000000000000000000008152600401610ae190612713565b60405180910390fd5b610b0783610af6610fb3565b8484610b0291906128db565b610fbb565b610b118383611718565b505050565b610b477f65d7a28e3265b37a6474929f336521b332c1681b933f6cb9f3376673440d862a610b42610fb3565b610bbf565b610b86576040517f08c379a0000000000000000000000000000000000000000000000000000000008152600401610b7d90612793565b60405180910390fd5b610b8e6118ee565b565b6000610bb7826001600086815260200190815260200160002061199190919063ffffffff16565b905092915050565b600080600084815260200190815260200160002060000160008373ffffffffffffffffffffffffffffffffffffffff1673ffffffffffffffffffffffffffffffffffffffff16815260200190815260200160002060009054906101000a900460ff16905092915050565b606060068054610c38906129cd565b80601f0160208091040260200160405190810160405280929190818152602001828054610c64906129cd565b8015610cb15780601f10610c8657610100808354040283529160200191610cb1565b820191906000526020600020905b815481529060010190602001808311610c9457829003601f168201915b5050505050905090565b6000801b81565b60008060036000610cd1610fb3565b73ffffffffffffffffffffffffffffffffffffffff1673ffffffffffffffffffffffffffffffffffffffff16815260200190815260200160002060008573ffffffffffffffffffffffffffffffffffffffff1673ffffffffffffffffffffffffffffffffffffffff16815260200190815260200160002054905082811015610d8e576040517f08c379a0000000000000000000000000000000000000000000000000000000008152600401610d85906127b3565b60405180910390fd5b610dab610d99610fb3565b858584610da691906128db565b610fbb565b600191505092915050565b6000610dca610dc3610fb3565b8484611186565b6001905092915050565b6000610df1600160008481526020019081526020016000206119ab565b9050919050565b7f9f2df0fed2c77648de5860a4cc508cd0818c85b8b8a1ab4ceeef8d981c8956a681565b610e2682826119c0565b610e4b81600160008581526020019081526020016000206114f190919063ffffffff16565b505050565b6000600360008473ffffffffffffffffffffffffffffffffffffffff1673ffffffffffffffffffffffffffffffffffffffff16815260200190815260200160002060008373ffffffffffffffffffffffffffffffffffffffff1673ffffffffffffffffffffffffffffffffffffffff16815260200190815260200160002054905092915050565b7f65d7a28e3265b37a6474929f336521b332c1681b933f6cb9f3376673440d862a81565b610f058282611a26565b5050565b6000610f31836000018373ffffffffffffffffffffffffffffffffffffffff1660001b611b06565b905092915050565b60007f7965db0b000000000000000000000000000000000000000000000000000000007bffffffffffffffffffffffffffffffffffffffffffffffffffffffff1916827bffffffffffffffffffffffffffffffffffffffffffffffffffffffff19161480610fac5750610fab82611b76565b5b9050919050565b600033905090565b600073ffffffffffffffffffffffffffffffffffffffff168373ffffffffffffffffffffffffffffffffffffffff16141561102b576040517f08c379a000000000000000000000000000000000000000000000000000000000815260040161102290612773565b60405180910390fd5b600073ffffffffffffffffffffffffffffffffffffffff168273ffffffffffffffffffffffffffffffffffffffff16141561109b576040517f08c379a000000000000000000000000000000000000000000000000000000000815260040161109290612653565b60405180910390fd5b80600360008573ffffffffffffffffffffffffffffffffffffffff1673ffffffffffffffffffffffffffffffffffffffff16815260200190815260200160002060008473ffffffffffffffffffffffffffffffffffffffff1673ffffffffffffffffffffffffffffffffffffffff168152602001908152602001600020819055508173ffffffffffffffffffffffffffffffffffffffff168373ffffffffffffffffffffffffffffffffffffffff167f8c5be1e5ebec7d5bd14f71427d1e84f3dd0314c0f7b2291e5b200ac8c7c3b925836040516111799190612833565b60405180910390a3505050565b600073ffffffffffffffffffffffffffffffffffffffff168373ffffffffffffffffffffffffffffffffffffffff1614156111f6576040517f08c379a00000000000000000000000000000000000000000000000000000000081526004016111ed90612753565b60405180910390fd5b600073ffffffffffffffffffffffffffffffffffffffff168273ffffffffffffffffffffffffffffffffffffffff161415611266576040517f08c379a000000000000000000000000000000000000000000000000000000000815260040161125d906125b3565b60405180910390fd5b611271838383611be0565b6000600260008573ffffffffffffffffffffffffffffffffffffffff1673ffffffffffffffffffffffffffffffffffffffff168152602001908152602001600020549050818110156112f8576040517f08c379a00000000000000000000000000000000000000000000000000000000081526004016112ef90612673565b60405180910390fd5b818161130491906128db565b600260008673ffffffffffffffffffffffffffffffffffffffff1673ffffffffffffffffffffffffffffffffffffffff1681526020019081526020016000208190555081600260008573ffffffffffffffffffffffffffffffffffffffff1673ffffffffffffffffffffffffffffffffffffffff16815260200190815260200160002060008282546113969190612885565b925050819055508273ffffffffffffffffffffffffffffffffffffffff168473ffffffffffffffffffffffffffffffffffffffff167fddf252ad1be2c89b69c2b068fc378daa952ba7f163c4a11628f55a4df523b3ef846040516113fa9190612833565b60405180910390a350505050565b611421611414836107ea565b61141c610fb3565b610bbf565b611460576040517f08c379a0000000000000000000000000000000000000000000000000000000008152600401611457906125d3565b60405180910390fd5b61146a8282611a26565b5050565b611476610fb3565b73ffffffffffffffffffffffffffffffffffffffff168173ffffffffffffffffffffffffffffffffffffffff16146114e3576040517f08c379a00000000000000000000000000000000000000000000000000000000081526004016114da906127d3565b60405180910390fd5b6114ed8282611bf0565b5050565b6000611519836000018373ffffffffffffffffffffffffffffffffffffffff1660001b611cd1565b905092915050565b611529610a32565b611568576040517f08c379a000000000000000000000000000000000000000000000000000000000815260040161155f906125f3565b60405180910390fd5b6000600760006101000a81548160ff0219169083151502179055507f5db9ee0a495bf2e6ff9c91a7834c1ba4fdd244a5e8aa4e537bd38aeae4b073aa6115ac610fb3565b6040516115b99190612520565b60405180910390a1565b600073ffffffffffffffffffffffffffffffffffffffff168273ffffffffffffffffffffffffffffffffffffffff161415611633576040517f08c379a000000000000000000000000000000000000000000000000000000000815260040161162a906127f3565b60405180910390fd5b61163f60008383611be0565b80600460008282546116519190612885565b9250508190555080600260008473ffffffffffffffffffffffffffffffffffffffff1673ffffffffffffffffffffffffffffffffffffffff16815260200190815260200160002060008282546116a79190612885565b925050819055508173ffffffffffffffffffffffffffffffffffffffff16600073ffffffffffffffffffffffffffffffffffffffff167fddf252ad1be2c89b69c2b068fc378daa952ba7f163c4a11628f55a4df523b3ef8360405161170c9190612833565b60405180910390a35050565b600073ffffffffffffffffffffffffffffffffffffffff168273ffffffffffffffffffffffffffffffffffffffff161415611788576040517f08c379a000000000000000000000000000000000000000000000000000000000815260040161177f90612733565b60405180910390fd5b61179482600083611be0565b6000600260008473ffffffffffffffffffffffffffffffffffffffff1673ffffffffffffffffffffffffffffffffffffffff1681526020019081526020016000205490508181101561181b576040517f08c379a000000000000000000000000000000000000000000000000000000000815260040161181290612613565b60405180910390fd5b818161182791906128db565b600260008573ffffffffffffffffffffffffffffffffffffffff1673ffffffffffffffffffffffffffffffffffffffff16815260200190815260200160002081905550816004600082825461187c91906128db565b92505081905550600073ffffffffffffffffffffffffffffffffffffffff168373ffffffffffffffffffffffffffffffffffffffff167fddf252ad1be2c89b69c2b068fc378daa952ba7f163c4a11628f55a4df523b3ef846040516118e19190612833565b60405180910390a3505050565b6118f6610a32565b15611936576040517f08c379a000000000000000000000000000000000000000000000000000000000815260040161192d906126b3565b60405180910390fd5b6001600760006101000a81548160ff0219169083151502179055507f62e78cea01bee320cd4e420270b5ea74000d11b0c9f74754ebdbfc544b05a25861197a610fb3565b6040516119879190612520565b60405180910390a1565b60006119a08360000183611e5b565b60001c905092915050565b60006119b982600001611ef5565b9050919050565b6119d96119cc836107ea565b6119d4610fb3565b610bbf565b611a18576040517f08c379a0000000000000000000000000000000000000000000000000000000008152600401611a0f90612693565b60405180910390fd5b611a228282611bf0565b5050565b611a308282610bbf565b611b0257600160008084815260200190815260200160002060000160008373ffffffffffffffffffffffffffffffffffffffff1673ffffffffffffffffffffffffffffffffffffffff16815260200190815260200160002060006101000a81548160ff021916908315150217905550611aa7610fb3565b73ffffffffffffffffffffffffffffffffffffffff168173ffffffffffffffffffffffffffffffffffffffff16837f2f8788117e7eff1d82e926ec794901d17c78024a50270940304540a733656f0d60405160405180910390a45b5050565b6000611b128383611f06565b611b6b578260000182908060018154018082558091505060019003906000526020600020016000909190919091505582600001805490508360010160008481526020019081526020016000208190555060019050611b70565b600090505b92915050565b60007f01ffc9a7000000000000000000000000000000000000000000000000000000007bffffffffffffffffffffffffffffffffffffffffffffffffffffffff1916827bffffffffffffffffffffffffffffffffffffffffffffffffffffffff1916149050919050565b611beb838383611f29565b505050565b611bfa8282610bbf565b15611ccd57600080600084815260200190815260200160002060000160008373ffffffffffffffffffffffffffffffffffffffff1673ffffffffffffffffffffffffffffffffffffffff16815260200190815260200160002060006101000a81548160ff021916908315150217905550611c72610fb3565b73ffffffffffffffffffffffffffffffffffffffff168173ffffffffffffffffffffffffffffffffffffffff16837ff6391f5c32d9c69d2a47ea670b442974b53935d1edc7fd64eb21e047a839171b60405160405180910390a45b5050565b60008083600101600084815260200190815260200160002054905060008114611e4f576000600182611d0391906128db565b9050600060018660000180549050611d1b91906128db565b90506000866000018281548110611d5b577f4e487b7100000000000000000000000000000000000000000000000000000000600052603260045260246000fd5b9060005260206000200154905080876000018481548110611da5577f4e487b7100000000000000000000000000000000000000000000000000000000600052603260045260246000fd5b9060005260206000200181905550600183611dc09190612885565b8760010160008381526020019081526020016000208190555086600001805480611e13577f4e487b7100000000000000000000000000000000000000000000000000000000600052603160045260246000fd5b60019003818190600052602060002001600090559055866001016000878152602001908152602001600020600090556001945050505050611e55565b60009150505b92915050565b600081836000018054905011611ea6576040517f08c379a0000000000000000000000000000000000000000000000000000000008152600401611e9d90612593565b60405180910390fd5b826000018281548110611ee2577f4e487b7100000000000000000000000000000000000000000000000000000000600052603260045260246000fd5b9060005260206000200154905092915050565b600081600001805490509050919050565b600080836001016000848152602001908152602001600020541415905092915050565b611f34838383611f81565b611f3c610a32565b15611f7c576040517f08c379a0000000000000000000000000000000000000000000000000000000008152600401611f7390612813565b60405180910390fd5b505050565b505050565b600081359050611f9581613077565b92915050565b600081359050611faa8161308e565b92915050565b600081359050611fbf816130a5565b92915050565b600081359050611fd4816130bc565b92915050565b600060208284031215611fec57600080fd5b6000611ffa84828501611f86565b91505092915050565b6000806040838503121561201657600080fd5b600061202485828601611f86565b925050602061203585828601611f86565b9150509250929050565b60008060006060848603121561205457600080fd5b600061206286828701611f86565b935050602061207386828701611f86565b925050604061208486828701611fc5565b9150509250925092565b600080604083850312156120a157600080fd5b60006120af85828601611f86565b92505060206120c085828601611fc5565b9150509250929050565b6000602082840312156120dc57600080fd5b60006120ea84828501611f9b565b91505092915050565b6000806040838503121561210657600080fd5b600061211485828601611f9b565b925050602061212585828601611f86565b9150509250929050565b6000806040838503121561214257600080fd5b600061215085828601611f9b565b925050602061216185828601611fc5565b9150509250929050565b60006020828403121561217d57600080fd5b600061218b84828501611fb0565b91505092915050565b6000602082840312156121a657600080fd5b60006121b484828501611fc5565b91505092915050565b6121c68161290f565b82525050565b6121d581612921565b82525050565b6121e48161292d565b82525050565b60006121f582612869565b6121ff8185612874565b935061220f81856020860161299a565b61221881612a5d565b840191505092915050565b6000612230602283612874565b915061223b82612a6e565b604082019050919050565b6000612253602383612874565b915061225e82612abd565b604082019050919050565b6000612276602f83612874565b915061228182612b0c565b604082019050919050565b6000612299601483612874565b91506122a482612b5b565b602082019050919050565b60006122bc602283612874565b91506122c782612b84565b604082019050919050565b60006122df603983612874565b91506122ea82612bd3565b604082019050919050565b6000612302602283612874565b915061230d82612c22565b604082019050919050565b6000612325602683612874565b915061233082612c71565b604082019050919050565b6000612348603083612874565b915061235382612cc0565b604082019050919050565b600061236b601083612874565b915061237682612d0f565b602082019050919050565b600061238e602883612874565b915061239982612d38565b604082019050919050565b60006123b1603683612874565b91506123bc82612d87565b604082019050919050565b60006123d4602483612874565b91506123df82612dd6565b604082019050919050565b60006123f7602183612874565b915061240282612e25565b604082019050919050565b600061241a602583612874565b915061242582612e74565b604082019050919050565b600061243d602483612874565b915061244882612ec3565b604082019050919050565b6000612460603783612874565b915061246b82612f12565b604082019050919050565b6000612483602583612874565b915061248e82612f61565b604082019050919050565b60006124a6602f83612874565b91506124b182612fb0565b604082019050919050565b60006124c9601f83612874565b91506124d482612fff565b602082019050919050565b60006124ec602a83612874565b91506124f782613028565b604082019050919050565b61250b81612983565b82525050565b61251a8161298d565b82525050565b600060208201905061253560008301846121bd565b92915050565b600060208201905061255060008301846121cc565b92915050565b600060208201905061256b60008301846121db565b92915050565b6000602082019050818103600083015261258b81846121ea565b905092915050565b600060208201905081810360008301526125ac81612223565b9050919050565b600060208201905081810360008301526125cc81612246565b9050919050565b600060208201905081810360008301526125ec81612269565b9050919050565b6000602082019050818103600083015261260c8161228c565b9050919050565b6000602082019050818103600083015261262c816122af565b9050919050565b6000602082019050818103600083015261264c816122d2565b9050919050565b6000602082019050818103600083015261266c816122f5565b9050919050565b6000602082019050818103600083015261268c81612318565b9050919050565b600060208201905081810360008301526126ac8161233b565b9050919050565b600060208201905081810360008301526126cc8161235e565b9050919050565b600060208201905081810360008301526126ec81612381565b9050919050565b6000602082019050818103600083015261270c816123a4565b9050919050565b6000602082019050818103600083015261272c816123c7565b9050919050565b6000602082019050818103600083015261274c816123ea565b9050919050565b6000602082019050818103600083015261276c8161240d565b9050919050565b6000602082019050818103600083015261278c81612430565b9050919050565b600060208201905081810360008301526127ac81612453565b9050919050565b600060208201905081810360008301526127cc81612476565b9050919050565b600060208201905081810360008301526127ec81612499565b9050919050565b6000602082019050818103600083015261280c816124bc565b9050919050565b6000602082019050818103600083015261282c816124df565b9050919050565b60006020820190506128486000830184612502565b92915050565b60006020820190506128636000830184612511565b92915050565b600081519050919050565b600082825260208201905092915050565b600061289082612983565b915061289b83612983565b9250827fffffffffffffffffffffffffffffffffffffffffffffffffffffffffffffffff038211156128d0576128cf6129ff565b5b828201905092915050565b60006128e682612983565b91506128f183612983565b925082821015612904576129036129ff565b5b828203905092915050565b600061291a82612963565b9050919050565b60008115159050919050565b6000819050919050565b60007fffffffff0000000000000000000000000000000000000000000000000000000082169050919050565b600073ffffffffffffffffffffffffffffffffffffffff82169050919050565b6000819050919050565b600060ff82169050919050565b60005b838110156129b857808201518184015260208101905061299d565b838111156129c7576000848401525b50505050565b600060028204905060018216806129e557607f821691505b602082108114156129f9576129f8612a2e565b5b50919050565b7f4e487b7100000000000000000000000000000000000000000000000000000000600052601160045260246000fd5b7f4e487b7100000000000000000000000000000000000000000000000000000000600052602260045260246000fd5b6000601f19601f8301169050919050565b7f456e756d657261626c655365743a20696e646578206f7574206f6620626f756e60008201527f6473000000000000000000000000000000000000000000000000000000000000602082015250565b7f45524332303a207472616e7366657220746f20746865207a65726f206164647260008201527f6573730000000000000000000000000000000000000000000000000000000000602082015250565b7f416363657373436f6e74726f6c3a2073656e646572206d75737420626520616e60008201527f2061646d696e20746f206772616e740000000000000000000000000000000000602082015250565b7f5061757361626c653a206e6f7420706175736564000000000000000000000000600082015250565b7f45524332303a206275726e20616d6f756e7420657863656564732062616c616e60008201527f6365000000000000000000000000000000000000000000000000000000000000602082015250565b7f45524332305072657365744d696e7465725061757365723a206d75737420686160008201527f76652070617573657220726f6c6520746f20756e706175736500000000000000602082015250565b7f45524332303a20617070726f766520746f20746865207a65726f20616464726560008201527f7373000000000000000000000000000000000000000000000000000000000000602082015250565b7f45524332303a207472616e7366657220616d6f756e742065786365656473206260008201527f616c616e63650000000000000000000000000000000000000000000000000000602082015250565b7f416363657373436f6e74726f6c3a2073656e646572206d75737420626520616e60008201527f2061646d696e20746f207265766f6b6500000000000000000000000000000000602082015250565b7f5061757361626c653a2070617573656400000000000000000000000000000000600082015250565b7f45524332303a207472616e7366657220616d6f756e742065786365656473206160008201527f6c6c6f77616e6365000000000000000000000000000000000000000000000000602082015250565b7f45524332305072657365744d696e7465725061757365723a206d75737420686160008201527f7665206d696e74657220726f6c6520746f206d696e7400000000000000000000602082015250565b7f45524332303a206275726e20616d6f756e74206578636565647320616c6c6f7760008201527f616e636500000000000000000000000000000000000000000000000000000000602082015250565b7f45524332303a206275726e2066726f6d20746865207a65726f2061646472657360008201527f7300000000000000000000000000000000000000000000000000000000000000602082015250565b7f45524332303a207472616e736665722066726f6d20746865207a65726f20616460008201527f6472657373000000000000000000000000000000000000000000000000000000602082015250565b7f45524332303a20617070726f76652066726f6d20746865207a65726f2061646460008201527f7265737300000000000000000000000000000000000000000000000000000000602082015250565b7f45524332305072657365744d696e7465725061757365723a206d75737420686160008201527f76652070617573657220726f6c6520746f207061757365000000000000000000602082015250565b7f45524332303a2064656372656173656420616c6c6f77616e63652062656c6f7760008201527f207a65726f000000000000000000000000000000000000000000000000000000602082015250565b7f416363657373436f6e74726f6c3a2063616e206f6e6c792072656e6f756e636560008201527f20726f6c657320666f722073656c660000000000000000000000000000000000602082015250565b7f45524332303a206d696e7420746f20746865207a65726f206164647265737300600082015250565b7f45524332305061757361626c653a20746f6b656e207472616e7366657220776860008201527f696c652070617573656400000000000000000000000000000000000000000000602082015250565b6130808161290f565b811461308b57600080fd5b50565b6130978161292d565b81146130a257600080fd5b50565b6130ae81612937565b81146130b957600080fd5b50565b6130c581612983565b81146130d057600080fd5b5056fea264697066735822122004079878be2488a0f4e366d65816083d00ba4c9b0462ed8e62cad9ba5f6056ba64736f6c63430008040033a264697066735822122054f7c8cccd62d0d04d246a39b0300a47046d9fffbf8de61f68f9e127002dbf0e64736f6c63430008040033",
  "linkReferences": {},
  "deployedLinkReferences": {}
}